{
  "contractName": "DJSession",
  "abi": [
    {
      "constant": true,
      "inputs": [],
      "name": "totalSessions",
      "outputs": [
        {
          "name": "",
          "type": "uint256"
        }
      ],
      "payable": false,
      "stateMutability": "view",
      "type": "function"
    },
    {
      "constant": true,
      "inputs": [
        {
          "name": "",
          "type": "uint256"
        }
      ],
      "name": "AllSessions",
      "outputs": [
        {
          "name": "name",
          "type": "string"
        },
        {
          "name": "start",
          "type": "uint256"
        },
        {
          "name": "end",
          "type": "uint256"
        },
        {
          "name": "totalAttendees",
          "type": "uint256"
        },
        {
          "name": "maxAttendees",
          "type": "uint256"
        },
        {
          "name": "price",
          "type": "uint256"
        },
        {
          "name": "votesPerTicket",
          "type": "uint256"
        },
        {
          "name": "totalVotes",
          "type": "uint256"
        },
        {
          "name": "creator",
          "type": "address"
        },
        {
          "name": "earnings",
          "type": "uint256"
        },
        {
          "name": "totalUpVotes",
          "type": "uint256"
        }
      ],
      "payable": false,
      "stateMutability": "view",
      "type": "function"
    },
    {
      "constant": true,
      "inputs": [
        {
          "name": "",
          "type": "uint256"
        }
      ],
      "name": "SessionOwner",
      "outputs": [
        {
          "name": "",
          "type": "address"
        }
      ],
      "payable": false,
      "stateMutability": "view",
      "type": "function"
    },
    {
      "inputs": [
        {
          "name": "tokenaddress",
          "type": "address"
        }
      ],
      "payable": false,
      "stateMutability": "nonpayable",
      "type": "constructor"
    },
    {
      "anonymous": false,
      "inputs": [
        {
          "indexed": false,
          "name": "start",
          "type": "uint256"
        },
        {
          "indexed": false,
          "name": "end",
          "type": "uint256"
        },
        {
          "indexed": false,
          "name": "price",
          "type": "uint256"
        },
        {
          "indexed": false,
          "name": "creator",
          "type": "address"
        },
        {
          "indexed": false,
          "name": "name",
          "type": "string"
        },
        {
          "indexed": false,
          "name": "id",
          "type": "uint256"
        }
      ],
      "name": "SessionCreated",
      "type": "event"
    },
    {
      "anonymous": false,
      "inputs": [
        {
          "indexed": false,
          "name": "session",
          "type": "uint256"
        },
        {
          "indexed": false,
          "name": "user",
          "type": "uint256"
        }
      ],
      "name": "Registered",
      "type": "event"
    },
    {
      "constant": true,
      "inputs": [
        {
          "name": "s",
          "type": "uint256"
        }
      ],
      "name": "getUpvotes",
      "outputs": [
        {
          "name": "",
          "type": "uint256"
        }
      ],
      "payable": false,
      "stateMutability": "view",
      "type": "function"
    },
    {
      "constant": true,
      "inputs": [
        {
          "name": "s",
          "type": "uint256"
        }
      ],
      "name": "getDownvotes",
      "outputs": [
        {
          "name": "",
          "type": "uint256"
        }
      ],
      "payable": false,
      "stateMutability": "view",
      "type": "function"
    },
    {
      "constant": true,
      "inputs": [
        {
          "name": "s",
          "type": "uint256"
        }
      ],
      "name": "OwnsSession",
      "outputs": [
        {
          "name": "",
          "type": "bool"
        }
      ],
      "payable": false,
      "stateMutability": "view",
      "type": "function"
    },
    {
      "constant": false,
      "inputs": [
        {
          "name": "s",
          "type": "uint256"
        },
        {
          "name": "e",
          "type": "uint256"
        },
        {
          "name": "sess",
          "type": "uint256"
        }
      ],
      "name": "UpVotesInInterval",
      "outputs": [
        {
          "name": "total",
          "type": "uint256"
        }
      ],
      "payable": false,
      "stateMutability": "nonpayable",
      "type": "function"
    },
    {
      "constant": false,
      "inputs": [
        {
          "name": "s",
          "type": "uint256"
        },
        {
          "name": "e",
          "type": "uint256"
        },
        {
          "name": "sess",
          "type": "uint256"
        }
      ],
      "name": "DownVotesInInterval",
      "outputs": [
        {
          "name": "total",
          "type": "uint256"
        }
      ],
      "payable": false,
      "stateMutability": "nonpayable",
      "type": "function"
    },
    {
      "constant": false,
      "inputs": [
        {
          "name": "name",
          "type": "string"
        },
        {
          "name": "_start",
          "type": "uint256"
        },
        {
          "name": "_end",
          "type": "uint256"
        },
        {
          "name": "_maxAttendees",
          "type": "uint256"
        },
        {
          "name": "_price",
          "type": "uint256"
        },
        {
          "name": "_votesPerTicket",
          "type": "uint256"
        }
      ],
      "name": "createSession",
      "outputs": [],
      "payable": false,
      "stateMutability": "nonpayable",
      "type": "function"
    },
    {
      "constant": false,
      "inputs": [
        {
          "name": "session",
          "type": "uint256"
        },
        {
          "name": "token",
          "type": "uint256"
        }
      ],
      "name": "upVote",
      "outputs": [],
      "payable": false,
      "stateMutability": "nonpayable",
      "type": "function"
    },
    {
      "constant": false,
      "inputs": [
        {
          "name": "session",
          "type": "uint256"
        },
        {
          "name": "token",
          "type": "uint256"
        }
      ],
      "name": "downVote",
      "outputs": [],
      "payable": false,
      "stateMutability": "nonpayable",
      "type": "function"
    },
    {
      "constant": false,
      "inputs": [
        {
          "name": "session",
          "type": "uint256"
        },
        {
          "name": "token",
          "type": "uint256"
        },
        {
          "name": "token2",
          "type": "uint256"
        }
      ],
      "name": "transferRegistration",
      "outputs": [],
      "payable": false,
      "stateMutability": "nonpayable",
      "type": "function"
    },
    {
      "constant": false,
      "inputs": [
        {
          "name": "session",
          "type": "uint256"
        },
        {
          "name": "token",
          "type": "uint256"
        }
      ],
      "name": "register",
      "outputs": [],
      "payable": true,
      "stateMutability": "payable",
      "type": "function"
    },
    {
      "constant": false,
      "inputs": [
        {
          "name": "s",
          "type": "uint256"
        }
      ],
      "name": "withdrawSessionEarnings",
      "outputs": [],
      "payable": false,
      "stateMutability": "nonpayable",
      "type": "function"
    }
  ],
  "bytecode": "0x608060405234801561001057600080fd5b506040516020806115f283398101806040528101908080519060200190929190505050806000806101000a81548173ffffffffffffffffffffffffffffffffffffffff021916908373ffffffffffffffffffffffffffffffffffffffff1602179055505061156f806100836000396000f3006080604052600436106100d0576000357c0100000000000000000000000000000000000000000000000000000000900463ffffffff1680631d652267146100d55780632d2282b0146101025780633070a6ad146101575780633493a87c146101985780636f5db0b5146101dd578063757cf4ca14610208578063919eff901461032057806391d318e414610357578063924f4231146103ac57806398f4270214610419578063aa7a17ba1461045a578063d66d6c1014610491578063d7d59ffb146104bb578063e88d357214610556575b600080fd5b3480156100e157600080fd5b5061010060048036038101908080359060200190929190505050610597565b005b34801561010e57600080fd5b50610141600480360381019080803590602001909291908035906020019092919080359060200190929190505050610689565b6040518082815260200191505060405180910390f35b34801561016357600080fd5b50610182600480360381019080803590602001909291905050506106da565b6040518082815260200191505060405180910390f35b3480156101a457600080fd5b506101c360048036038101908080359060200190929190505050610712565b604051808215151515815260200191505060405180910390f35b3480156101e957600080fd5b506101f261077d565b6040518082815260200191505060405180910390f35b34801561021457600080fd5b5061023360048036038101908080359060200190929190505050610783565b60405180806020018c81526020018b81526020018a81526020018981526020018881526020018781526020018681526020018573ffffffffffffffffffffffffffffffffffffffff1673ffffffffffffffffffffffffffffffffffffffff16815260200184815260200183815260200182810382528d818151815260200191508051906020019080838360005b838110156102db5780820151818401526020810190506102c0565b50505050905090810190601f1680156103085780820380516001836020036101000a031916815260200191505b509c5050505050505050505050505060405180910390f35b34801561032c57600080fd5b506103556004803603810190808035906020019092919080359060200190929190505050610895565b005b34801561036357600080fd5b50610396600480360381019080803590602001909291908035906020019092919080359060200190929190505050610ae1565b6040518082815260200191505060405180910390f35b3480156103b857600080fd5b506103d760048036038101908080359060200190929190505050610b32565b604051808273ffffffffffffffffffffffffffffffffffffffff1673ffffffffffffffffffffffffffffffffffffffff16815260200191505060405180910390f35b34801561042557600080fd5b5061044460048036038101908080359060200190929190505050610b65565b6040518082815260200191505060405180910390f35b34801561046657600080fd5b5061048f6004803603810190808035906020019092919080359060200190929190505050610b85565b005b6104b96004803603810190808035906020019092919080359060200190929190505050610dad565b005b3480156104c757600080fd5b50610554600480360381019080803590602001908201803590602001908080601f01602080910402602001604051908101604052809392919081815260200183838082843782019150505050505091929192908035906020019092919080359060200190929190803590602001909291908035906020019092919080359060200190929190505050611021565b005b34801561056257600080fd5b506105956004803603810190808035906020019092919080359060200190929190803590602001909291905050506112cf565b005b60003373ffffffffffffffffffffffffffffffffffffffff1660016000848152602001908152602001600020600c0160009054906101000a900473ffffffffffffffffffffffffffffffffffffffff1673ffffffffffffffffffffffffffffffffffffffff1614151561060957600080fd5b60016000838152602001908152602001600020600d01549050600060016000848152602001908152602001600020600d01819055503373ffffffffffffffffffffffffffffffffffffffff166108fc829081150290604051600060405180830381858888f19350505050158015610684573d6000803e3d6000fd5b505050565b6000808490505b83811115156106d25760016000848152602001908152602001600020600901600082815260200190815260200160002054820191508080600101915050610690565b509392505050565b600060016000838152602001908152602001600020600e015460016000848152602001908152602001600020600a0154039050919050565b60003373ffffffffffffffffffffffffffffffffffffffff166002600084815260200190815260200160002060009054906101000a900473ffffffffffffffffffffffffffffffffffffffff1673ffffffffffffffffffffffffffffffffffffffff16149050919050565b60035481565b6001602052806000526040600020600091509050806000018054600181600116156101000203166002900480601f01602080910402602001604051908101604052809291908181526020018280546001816001161561010002031660029004801561082f5780601f106108045761010080835404028352916020019161082f565b820191906000526020600020905b81548152906001019060200180831161081257829003601f168201915b50505050509080600101549080600201549080600301549080600401549080600501549080600601549080600a01549080600c0160009054906101000a900473ffffffffffffffffffffffffffffffffffffffff169080600d01549080600e015490508b565b6001151560016000848152602001908152602001600020600b01600083815260200190815260200160002060009054906101000a900460ff1615151415156108dc57600080fd5b3373ffffffffffffffffffffffffffffffffffffffff166000809054906101000a900473ffffffffffffffffffffffffffffffffffffffff1673ffffffffffffffffffffffffffffffffffffffff16636352211e836040518263ffffffff167c010000000000000000000000000000000000000000000000000000000002815260040180828152602001915050602060405180830381600087803b15801561098357600080fd5b505af1158015610997573d6000803e3d6000fd5b505050506040513d60208110156109ad57600080fd5b810190808051906020019092919050505073ffffffffffffffffffffffffffffffffffffffff161415156109e057600080fd5b600160008381526020019081526020016000206006015460016000848152602001908152602001600020600701600083815260200190815260200160002054101515610a2b57600080fd5b600180600084815260200190815260200160002060070160008381526020019081526020016000206000828254019250508190555060018060008481526020019081526020016000206008016000838152602001908152602001600020600082825401925050819055506001806000848152602001908152602001600020600a01600082825401925050819055506001806000848152602001908152602001600020600e01600082825401925050819055505050565b6000808490505b8381111515610b2a5760016000848152602001908152602001600020600801600082815260200190815260200160002054820191508080600101915050610ae8565b509392505050565b60026020528060005260406000206000915054906101000a900473ffffffffffffffffffffffffffffffffffffffff1681565b600060016000838152602001908152602001600020600e01549050919050565b6001151560016000848152602001908152602001600020600b01600083815260200190815260200160002060009054906101000a900460ff161515141515610bcc57600080fd5b3373ffffffffffffffffffffffffffffffffffffffff166000809054906101000a900473ffffffffffffffffffffffffffffffffffffffff1673ffffffffffffffffffffffffffffffffffffffff16636352211e836040518263ffffffff167c010000000000000000000000000000000000000000000000000000000002815260040180828152602001915050602060405180830381600087803b158015610c7357600080fd5b505af1158015610c87573d6000803e3d6000fd5b505050506040513d6020811015610c9d57600080fd5b810190808051906020019092919050505073ffffffffffffffffffffffffffffffffffffffff16141515610cd057600080fd5b600160008381526020019081526020016000206006015460016000848152602001908152602001600020600701600083815260200190815260200160002054101515610d1b57600080fd5b600180600084815260200190815260200160002060070160008381526020019081526020016000206000828254019250508190555060018060008481526020019081526020016000206009016000838152602001908152602001600020600082825401925050819055506001806000848152602001908152602001600020600a01600082825401925050819055505050565b60016000838152602001908152602001600020600501543410151515610dd257600080fd5b3373ffffffffffffffffffffffffffffffffffffffff166000809054906101000a900473ffffffffffffffffffffffffffffffffffffffff1673ffffffffffffffffffffffffffffffffffffffff16636352211e836040518263ffffffff167c010000000000000000000000000000000000000000000000000000000002815260040180828152602001915050602060405180830381600087803b158015610e7957600080fd5b505af1158015610e8d573d6000803e3d6000fd5b505050506040513d6020811015610ea357600080fd5b810190808051906020019092919050505073ffffffffffffffffffffffffffffffffffffffff16141515610ed657600080fd5b6000151560016000848152602001908152602001600020600b01600083815260200190815260200160002060009054906101000a900460ff161515141515610f1d57600080fd5b60016000838152602001908152602001600020600401546001600084815260200190815260200160002060030154101515610f5757600080fd5b6001806000848152602001908152602001600020600b01600083815260200190815260200160002060006101000a81548160ff0219169083151502179055506001806000848152602001908152602001600020600301600082825401925050819055503460016000848152602001908152602001600020600d01600082825401925050819055507f43fb40563abe94b82639c6c1feca5349355c1e9f36e949e9411fbfbc9b05f4d28282604051808381526020018281526020019250505060405180910390a15050565b844210151561102f57600080fd5b6101606040519081016040528087815260200186815260200185815260200160008152602001848152602001838152602001828152602001600081526020013373ffffffffffffffffffffffffffffffffffffffff16815260200160008152602001600081525060016000600160035401815260200190815260200160002060008201518160000190805190602001906110ca92919061149e565b506020820151816001015560408201518160020155606082015181600301556080820151816004015560a0820151816005015560c0820151816006015560e082015181600a015561010082015181600c0160006101000a81548173ffffffffffffffffffffffffffffffffffffffff021916908373ffffffffffffffffffffffffffffffffffffffff16021790555061012082015181600d015561014082015181600e01559050503360026000600160035401815260200190815260200160002060006101000a81548173ffffffffffffffffffffffffffffffffffffffff021916908373ffffffffffffffffffffffffffffffffffffffff1602179055506001600354016003819055507f477b9f1b4dd34112b7be05221de825325e63299f337f9c34f814c6c9dc708fe6858584338a600354604051808781526020018681526020018581526020018473ffffffffffffffffffffffffffffffffffffffff1673ffffffffffffffffffffffffffffffffffffffff16815260200180602001838152602001828103825284818151815260200191508051906020019080838360005b8381101561128857808201518184015260208101905061126d565b50505050905090810190601f1680156112b55780820380516001836020036101000a031916815260200191505b5097505050505050505060405180910390a1505050505050565b6001151560016000858152602001908152602001600020600b01600084815260200190815260200160002060009054906101000a900460ff16151514151561131657600080fd5b3373ffffffffffffffffffffffffffffffffffffffff166000809054906101000a900473ffffffffffffffffffffffffffffffffffffffff1673ffffffffffffffffffffffffffffffffffffffff16636352211e846040518263ffffffff167c010000000000000000000000000000000000000000000000000000000002815260040180828152602001915050602060405180830381600087803b1580156113bd57600080fd5b505af11580156113d1573d6000803e3d6000fd5b505050506040513d60208110156113e757600080fd5b810190808051906020019092919050505073ffffffffffffffffffffffffffffffffffffffff1614151561141a57600080fd5b600060016000858152602001908152602001600020600b01600084815260200190815260200160002060006101000a81548160ff0219169083151502179055506001806000858152602001908152602001600020600b01600083815260200190815260200160002060006101000a81548160ff021916908315150217905550505050565b828054600181600116156101000203166002900490600052602060002090601f016020900481019282601f106114df57805160ff191683800117855561150d565b8280016001018555821561150d579182015b8281111561150c5782518255916020019190600101906114f1565b5b50905061151a919061151e565b5090565b61154091905b8082111561153c576000816000905550600101611524565b5090565b905600a165627a7a7230582063fd6370560fcb754e98b9299deeefd191635609d17be5d70bcc1823bbcbde260029",
  "source": "pragma solidity ^0.4.24;\nimport './Avatar.sol';\n\ncontract DJSession{\nAvatar a;\n\nmapping(uint=>Session) public AllSessions;\nmapping(uint=>address) public SessionOwner;\nuint public totalSessions;\n\nconstructor(address tokenaddress){\na=Avatar(tokenaddress);\n}\n\nmodifier inSession(uint s){\nrequire((now>AllSessions[s].start) &&(now<AllSessions[s].end));\n_;\n}\nevent SessionCreated(uint start,uint end,uint price,address creator,string name,uint id);\nevent Registered(uint session,uint user);\n\nstruct Session{\nstring name;   \nuint start;\nuint end;\nuint totalAttendees;\nuint maxAttendees;\nuint price;\nuint votesPerTicket;\nmapping(uint=>uint) ticketvotes;\n//maps an upvote to a time in seconds\nmapping(uint=>uint) upVotes;\n//maps a downvote to time in seconds\nmapping(uint=>uint) downVotes;\n\nuint totalVotes;\n\nmapping(uint=>bool) registeredUser;\naddress creator;\nuint earnings;\n\nuint totalUpVotes;\n\n}\nfunction getUpvotes(uint s) constant returns(uint){\n    return AllSessions[s].totalUpVotes;\n}\nfunction getDownvotes(uint s) constant returns(uint){\n    return (AllSessions[s].totalVotes-AllSessions[s].totalUpVotes);\n}\nfunction OwnsSession(uint s) constant returns(bool){\n      return SessionOwner[s]==msg.sender;\n}\nfunction UpVotesInInterval(uint s,uint e,uint sess) returns(uint total){\n    for(uint i=s;i<=e;i++){\n        total+=AllSessions[sess].upVotes[i];\n    }\n\n}\n\nfunction DownVotesInInterval(uint s,uint e,uint sess) returns(uint total){\n    for(uint i=s;i<=e;i++){\n        total+=AllSessions[sess].downVotes[i];\n    }\n    \n}\nfunction createSession(string name,uint _start,uint _end,uint _maxAttendees,uint _price,uint _votesPerTicket){\n    require(now<_start);\n    AllSessions[totalSessions+1]=Session( name,_start,_end,0,_maxAttendees,_price,_votesPerTicket,0,msg.sender,0,0);\n    SessionOwner[totalSessions+1]=msg.sender;\n    totalSessions=totalSessions+1;\n    emit SessionCreated( _start, _end, _price,msg.sender,name,totalSessions);\n}\n\nfunction upVote(uint session,uint token ){\n require(AllSessions[session].registeredUser[token]==true);  \n require(a.ownerOf(token)==msg.sender);\n require(AllSessions[session].ticketvotes[token]<AllSessions[session].votesPerTicket);\n AllSessions[session].ticketvotes[token]+=1;\n AllSessions[session].upVotes[token]+=1;\n AllSessions[session].totalVotes+=1;\n AllSessions[session].totalUpVotes+=1;\n \n\n}\n\nfunction downVote(uint session,uint token){\n require(AllSessions[session].registeredUser[token]==true);  \n require(a.ownerOf(token)==msg.sender);\n require(AllSessions[session].ticketvotes[token]<AllSessions[session].votesPerTicket);\n AllSessions[session].ticketvotes[token]+=1;\n AllSessions[session].downVotes[token]+=1;\n AllSessions[session].totalVotes+=1;\n}\n\nfunction transferRegistration(uint session,uint token,uint token2){\n require(AllSessions[session].registeredUser[token]==true);  \n require(a.ownerOf(token)==msg.sender);\n AllSessions[session].registeredUser[token]=false;\n AllSessions[session].registeredUser[token2]=true;\n}\n\nfunction register(uint session,uint token) payable{\n    require(msg.value>=AllSessions[session].price);\n    require(a.ownerOf(token)==msg.sender);\n    require(AllSessions[session].registeredUser[token]==false);\n    require(AllSessions[session].totalAttendees<AllSessions[session].maxAttendees);\n    AllSessions[session].registeredUser[token]=true;\n    AllSessions[session].totalAttendees+=1;\n    AllSessions[session].earnings+=msg.value;\n    emit Registered(session,token);\n}\n\nfunction withdrawSessionEarnings(uint s){\nrequire(AllSessions[s].creator==msg.sender);\n    uint value=AllSessions[s].earnings;\n\n    AllSessions[s].earnings=0;\n    msg.sender.transfer(value);\n}\n\n}",
  "sourcePath": "/home/john/ETHDENVER/spin-fm/ethereum/contracts/DJSession.sol",
  "compiler": {
    "name": "solc",
    "version": "0.4.25+commit.59dbf8f1.Emscripten.clang"
  },
  "schemaVersion": "2.0.2",
  "updatedAt": "2019-02-17T10:04:21.442Z"
}