{
  "contractName": "DJSession",
  "abi": [
    {
      "constant": true,
      "inputs": [],
      "name": "totalSessions",
      "outputs": [
        {
          "name": "",
          "type": "uint256"
        }
      ],
      "payable": false,
      "stateMutability": "view",
      "type": "function"
    },
    {
      "constant": true,
      "inputs": [
        {
          "name": "",
          "type": "uint256"
        }
      ],
      "name": "AllSessions",
      "outputs": [
        {
          "name": "start",
          "type": "uint256"
        },
        {
          "name": "end",
          "type": "uint256"
        },
        {
          "name": "totalAttendees",
          "type": "uint256"
        },
        {
          "name": "maxAttendees",
          "type": "uint256"
        },
        {
          "name": "price",
          "type": "uint256"
        },
        {
          "name": "votesPerTicket",
          "type": "uint256"
        },
        {
          "name": "totalVotes",
          "type": "uint256"
        },
        {
          "name": "creator",
          "type": "address"
        },
        {
          "name": "earnings",
          "type": "uint256"
        },
        {
          "name": "totalUpVotes",
          "type": "uint256"
        }
      ],
      "payable": false,
      "stateMutability": "view",
      "type": "function"
    },
    {
      "constant": true,
      "inputs": [
        {
          "name": "",
          "type": "address"
        }
      ],
      "name": "registeredDJ",
      "outputs": [
        {
          "name": "",
          "type": "bool"
        }
      ],
      "payable": false,
      "stateMutability": "view",
      "type": "function"
    },
    {
      "constant": true,
      "inputs": [
        {
          "name": "",
          "type": "uint256"
        }
      ],
      "name": "SessionOwner",
      "outputs": [
        {
          "name": "",
          "type": "address"
        }
      ],
      "payable": false,
      "stateMutability": "view",
      "type": "function"
    },
    {
      "inputs": [
        {
          "name": "tokenaddress",
          "type": "address"
        }
      ],
      "payable": false,
      "stateMutability": "nonpayable",
      "type": "constructor"
    },
    {
      "anonymous": false,
      "inputs": [
        {
          "indexed": false,
          "name": "start",
          "type": "uint256"
        },
        {
          "indexed": false,
          "name": "end",
          "type": "uint256"
        },
        {
          "indexed": false,
          "name": "price",
          "type": "uint256"
        },
        {
          "indexed": false,
          "name": "creator",
          "type": "address"
        }
      ],
      "name": "SessionCreated",
      "type": "event"
    },
    {
      "constant": true,
      "inputs": [
        {
          "name": "s",
          "type": "uint256"
        }
      ],
      "name": "getUpvotes",
      "outputs": [
        {
          "name": "",
          "type": "uint256"
        }
      ],
      "payable": false,
      "stateMutability": "view",
      "type": "function"
    },
    {
      "constant": true,
      "inputs": [
        {
          "name": "s",
          "type": "uint256"
        }
      ],
      "name": "getDownvotes",
      "outputs": [
        {
          "name": "",
          "type": "uint256"
        }
      ],
      "payable": false,
      "stateMutability": "view",
      "type": "function"
    },
    {
      "constant": true,
      "inputs": [
        {
          "name": "s",
          "type": "uint256"
        }
      ],
      "name": "OwnsSession",
      "outputs": [
        {
          "name": "",
          "type": "bool"
        }
      ],
      "payable": false,
      "stateMutability": "view",
      "type": "function"
    },
    {
      "constant": false,
      "inputs": [
        {
          "name": "s",
          "type": "uint256"
        },
        {
          "name": "e",
          "type": "uint256"
        },
        {
          "name": "sess",
          "type": "uint256"
        }
      ],
      "name": "UpVotesInInterval",
      "outputs": [
        {
          "name": "total",
          "type": "uint256"
        }
      ],
      "payable": false,
      "stateMutability": "nonpayable",
      "type": "function"
    },
    {
      "constant": false,
      "inputs": [
        {
          "name": "s",
          "type": "uint256"
        },
        {
          "name": "e",
          "type": "uint256"
        },
        {
          "name": "sess",
          "type": "uint256"
        }
      ],
      "name": "DownVotesInInterval",
      "outputs": [
        {
          "name": "total",
          "type": "uint256"
        }
      ],
      "payable": false,
      "stateMutability": "nonpayable",
      "type": "function"
    },
    {
      "constant": false,
      "inputs": [
        {
          "name": "_start",
          "type": "uint256"
        },
        {
          "name": "_end",
          "type": "uint256"
        },
        {
          "name": "_maxAttendees",
          "type": "uint256"
        },
        {
          "name": "_price",
          "type": "uint256"
        },
        {
          "name": "_votesPerTicket",
          "type": "uint256"
        }
      ],
      "name": "createSession",
      "outputs": [],
      "payable": false,
      "stateMutability": "nonpayable",
      "type": "function"
    },
    {
      "constant": false,
      "inputs": [
        {
          "name": "session",
          "type": "uint256"
        },
        {
          "name": "token",
          "type": "uint256"
        }
      ],
      "name": "upVote",
      "outputs": [],
      "payable": false,
      "stateMutability": "nonpayable",
      "type": "function"
    },
    {
      "constant": false,
      "inputs": [
        {
          "name": "session",
          "type": "uint256"
        },
        {
          "name": "token",
          "type": "uint256"
        }
      ],
      "name": "downVote",
      "outputs": [],
      "payable": false,
      "stateMutability": "nonpayable",
      "type": "function"
    },
    {
      "constant": false,
      "inputs": [
        {
          "name": "session",
          "type": "uint256"
        },
        {
          "name": "token",
          "type": "uint256"
        },
        {
          "name": "token2",
          "type": "uint256"
        }
      ],
      "name": "transferRegistration",
      "outputs": [],
      "payable": false,
      "stateMutability": "nonpayable",
      "type": "function"
    },
    {
      "constant": false,
      "inputs": [
        {
          "name": "session",
          "type": "uint256"
        },
        {
          "name": "token",
          "type": "uint256"
        }
      ],
      "name": "register",
      "outputs": [],
      "payable": true,
      "stateMutability": "payable",
      "type": "function"
    },
    {
      "constant": false,
      "inputs": [
        {
          "name": "s",
          "type": "uint256"
        }
      ],
      "name": "withdrawSessionEarnings",
      "outputs": [],
      "payable": false,
      "stateMutability": "nonpayable",
      "type": "function"
    }
  ],
  "bytecode": "0x608060405234801561001057600080fd5b506040516020806113b283398101806040528101908080519060200190929190505050806000806101000a81548173ffffffffffffffffffffffffffffffffffffffff021916908373ffffffffffffffffffffffffffffffffffffffff1602179055505061132f806100836000396000f3006080604052600436106100db576000357c0100000000000000000000000000000000000000000000000000000000900463ffffffff1680631d652267146100e05780631fe5fc271461010d5780632d2282b0146101625780633070a6ad146101b75780633493a87c146101f85780636f5db0b51461023d578063757cf4ca146102685780638378f81314610314578063919eff901461036f57806391d318e4146103a6578063924f4231146103fb57806398f4270214610468578063aa7a17ba146104a9578063d66d6c10146104e0578063e88d35721461050a575b600080fd5b3480156100ec57600080fd5b5061010b6004803603810190808035906020019092919050505061054b565b005b34801561011957600080fd5b50610160600480360381019080803590602001909291908035906020019092919080359060200190929190803590602001909291908035906020019092919050505061063d565b005b34801561016e57600080fd5b506101a160048036038101908080359060200190929190803590602001909291908035906020019092919050505061084f565b6040518082815260200191505060405180910390f35b3480156101c357600080fd5b506101e2600480360381019080803590602001909291905050506108a0565b6040518082815260200191505060405180910390f35b34801561020457600080fd5b50610223600480360381019080803590602001909291905050506108d8565b604051808215151515815260200191505060405180910390f35b34801561024957600080fd5b50610252610943565b6040518082815260200191505060405180910390f35b34801561027457600080fd5b5061029360048036038101908080359060200190929190505050610949565b604051808b81526020018a81526020018981526020018881526020018781526020018681526020018581526020018473ffffffffffffffffffffffffffffffffffffffff1673ffffffffffffffffffffffffffffffffffffffff1681526020018381526020018281526020019a505050505050505050505060405180910390f35b34801561032057600080fd5b50610355600480360381019080803573ffffffffffffffffffffffffffffffffffffffff1690602001909291905050506109bd565b604051808215151515815260200191505060405180910390f35b34801561037b57600080fd5b506103a460048036038101908080359060200190929190803590602001909291905050506109dd565b005b3480156103b257600080fd5b506103e5600480360381019080803590602001909291908035906020019092919080359060200190929190505050610c2d565b6040518082815260200191505060405180910390f35b34801561040757600080fd5b5061042660048036038101908080359060200190929190505050610c7e565b604051808273ffffffffffffffffffffffffffffffffffffffff1673ffffffffffffffffffffffffffffffffffffffff16815260200191505060405180910390f35b34801561047457600080fd5b5061049360048036038101908080359060200190929190505050610cb1565b6040518082815260200191505060405180910390f35b3480156104b557600080fd5b506104de6004803603810190808035906020019092919080359060200190929190505050610cd1565b005b6105086004803603810190808035906020019092919080359060200190929190505050610efc565b005b34801561051657600080fd5b50610549600480360381019080803590602001909291908035906020019092919080359060200190929190505050611133565b005b60003373ffffffffffffffffffffffffffffffffffffffff1660026000848152602001908152602001600020600b0160009054906101000a900473ffffffffffffffffffffffffffffffffffffffff1673ffffffffffffffffffffffffffffffffffffffff161415156105bd57600080fd5b60026000838152602001908152602001600020600c01549050600060026000848152602001908152602001600020600c01819055503373ffffffffffffffffffffffffffffffffffffffff166108fc829081150290604051600060405180830381858888f19350505050158015610638573d6000803e3d6000fd5b505050565b844210151561064b57600080fd5b6101406040519081016040528086815260200185815260200160008152602001848152602001838152602001828152602001600081526020013373ffffffffffffffffffffffffffffffffffffffff168152602001600081526020016000815250600260006001600454018152602001908152602001600020600082015181600001556020820151816001015560408201518160020155606082015181600301556080820151816004015560a0820151816005015560c0820151816009015560e082015181600b0160006101000a81548173ffffffffffffffffffffffffffffffffffffffff021916908373ffffffffffffffffffffffffffffffffffffffff16021790555061010082015181600c015561012082015181600d01559050503360036000600160045401815260200190815260200160002060006101000a81548173ffffffffffffffffffffffffffffffffffffffff021916908373ffffffffffffffffffffffffffffffffffffffff1602179055506001600454016004819055507f8bd04aa663e148141362ddf3c12623efb69e67c322e1fd265c17797c75f3b4bc85858433604051808581526020018481526020018381526020018273ffffffffffffffffffffffffffffffffffffffff1673ffffffffffffffffffffffffffffffffffffffff16815260200194505050505060405180910390a15050505050565b6000808490505b83811115156108985760026000848152602001908152602001600020600801600082815260200190815260200160002054820191508080600101915050610856565b509392505050565b600060026000838152602001908152602001600020600d01546002600084815260200190815260200160002060090154039050919050565b60003373ffffffffffffffffffffffffffffffffffffffff166003600084815260200190815260200160002060009054906101000a900473ffffffffffffffffffffffffffffffffffffffff1673ffffffffffffffffffffffffffffffffffffffff16149050919050565b60045481565b600260205280600052604060002060009150905080600001549080600101549080600201549080600301549080600401549080600501549080600901549080600b0160009054906101000a900473ffffffffffffffffffffffffffffffffffffffff169080600c01549080600d015490508a565b60016020528060005260406000206000915054906101000a900460ff1681565b6001151560026000848152602001908152602001600020600a01600083815260200190815260200160002060009054906101000a900460ff161515141515610a2457600080fd5b3373ffffffffffffffffffffffffffffffffffffffff166000809054906101000a900473ffffffffffffffffffffffffffffffffffffffff1673ffffffffffffffffffffffffffffffffffffffff16636352211e836040518263ffffffff167c010000000000000000000000000000000000000000000000000000000002815260040180828152602001915050602060405180830381600087803b158015610acb57600080fd5b505af1158015610adf573d6000803e3d6000fd5b505050506040513d6020811015610af557600080fd5b810190808051906020019092919050505073ffffffffffffffffffffffffffffffffffffffff16141515610b2857600080fd5b600260008381526020019081526020016000206005015460026000848152602001908152602001600020600601600083815260200190815260200160002054101515610b7357600080fd5b60016002600084815260200190815260200160002060060160008381526020019081526020016000206000828254019250508190555060016002600084815260200190815260200160002060070160008381526020019081526020016000206000828254019250508190555060016002600084815260200190815260200160002060090160008282540192505081905550600160026000848152602001908152602001600020600d01600082825401925050819055505050565b6000808490505b8381111515610c765760026000848152602001908152602001600020600701600082815260200190815260200160002054820191508080600101915050610c34565b509392505050565b60036020528060005260406000206000915054906101000a900473ffffffffffffffffffffffffffffffffffffffff1681565b600060026000838152602001908152602001600020600d01549050919050565b6001151560026000848152602001908152602001600020600a01600083815260200190815260200160002060009054906101000a900460ff161515141515610d1857600080fd5b3373ffffffffffffffffffffffffffffffffffffffff166000809054906101000a900473ffffffffffffffffffffffffffffffffffffffff1673ffffffffffffffffffffffffffffffffffffffff16636352211e836040518263ffffffff167c010000000000000000000000000000000000000000000000000000000002815260040180828152602001915050602060405180830381600087803b158015610dbf57600080fd5b505af1158015610dd3573d6000803e3d6000fd5b505050506040513d6020811015610de957600080fd5b810190808051906020019092919050505073ffffffffffffffffffffffffffffffffffffffff16141515610e1c57600080fd5b600260008381526020019081526020016000206005015460026000848152602001908152602001600020600601600083815260200190815260200160002054101515610e6757600080fd5b600160026000848152602001908152602001600020600601600083815260200190815260200160002060008282540192505081905550600160026000848152602001908152602001600020600801600083815260200190815260200160002060008282540192505081905550600160026000848152602001908152602001600020600901600082825401925050819055505050565b60026000838152602001908152602001600020600401543410151515610f2157600080fd5b3373ffffffffffffffffffffffffffffffffffffffff166000809054906101000a900473ffffffffffffffffffffffffffffffffffffffff1673ffffffffffffffffffffffffffffffffffffffff16636352211e836040518263ffffffff167c010000000000000000000000000000000000000000000000000000000002815260040180828152602001915050602060405180830381600087803b158015610fc857600080fd5b505af1158015610fdc573d6000803e3d6000fd5b505050506040513d6020811015610ff257600080fd5b810190808051906020019092919050505073ffffffffffffffffffffffffffffffffffffffff1614151561102557600080fd5b6000151560026000848152602001908152602001600020600a01600083815260200190815260200160002060009054906101000a900460ff16151514151561106c57600080fd5b600260008381526020019081526020016000206003015460026000848152602001908152602001600020600201541015156110a657600080fd5b600160026000848152602001908152602001600020600a01600083815260200190815260200160002060006101000a81548160ff021916908315150217905550600160026000848152602001908152602001600020600201600082825401925050819055503460026000848152602001908152602001600020600c01600082825401925050819055505050565b6001151560026000858152602001908152602001600020600a01600084815260200190815260200160002060009054906101000a900460ff16151514151561117a57600080fd5b3373ffffffffffffffffffffffffffffffffffffffff166000809054906101000a900473ffffffffffffffffffffffffffffffffffffffff1673ffffffffffffffffffffffffffffffffffffffff16636352211e846040518263ffffffff167c010000000000000000000000000000000000000000000000000000000002815260040180828152602001915050602060405180830381600087803b15801561122157600080fd5b505af1158015611235573d6000803e3d6000fd5b505050506040513d602081101561124b57600080fd5b810190808051906020019092919050505073ffffffffffffffffffffffffffffffffffffffff1614151561127e57600080fd5b600060026000858152602001908152602001600020600a01600084815260200190815260200160002060006101000a81548160ff021916908315150217905550600160026000858152602001908152602001600020600a01600083815260200190815260200160002060006101000a81548160ff0219169083151502179055505050505600a165627a7a7230582026e6d09070ba4fb7ab2f439d586a506381bf1ef161ded1f2573408a90daf4bcd0029",
  "source": "pragma solidity ^0.4.24;\nimport './Avatar.sol';\n\ncontract DJSession{\nAvatar a;\nmapping(address=>bool) public registeredDJ;\nmapping(uint=>Session) public AllSessions;\nmapping(uint=>address) public SessionOwner;\nuint public totalSessions;\n\nconstructor(address tokenaddress){\na=Avatar(tokenaddress);\n}\nmodifier inSession(uint s){\nrequire((now>AllSessions[s].start) &&(now<AllSessions[s].end));\n_;\n}\nevent SessionCreated(uint start,uint end,uint price,address creator);\n\nstruct Session{\nuint start;\nuint end;\nuint totalAttendees;\nuint maxAttendees;\nuint price;\nuint votesPerTicket;\nmapping(uint=>uint) ticketvotes;\n//maps an upvote to a time in seconds\nmapping(uint=>uint) upVotes;\n//maps a downvote to time in seconds\nmapping(uint=>uint) downVotes;\n\nuint totalVotes;\n\nmapping(uint=>bool) registeredUser;\naddress creator;\nuint earnings;\n\nuint totalUpVotes;\n\n}\nfunction getUpvotes(uint s) constant returns(uint){\n    return AllSessions[s].totalUpVotes;\n}\nfunction getDownvotes(uint s) constant returns(uint){\n    return (AllSessions[s].totalVotes-AllSessions[s].totalUpVotes);\n}\nfunction OwnsSession(uint s) constant returns(bool){\n      return SessionOwner[s]==msg.sender;\n}\nfunction UpVotesInInterval(uint s,uint e,uint sess) returns(uint total){\n    for(uint i=s;i<=e;i++){\n        total+=AllSessions[sess].upVotes[i];\n    }\n\n}\n\nfunction DownVotesInInterval(uint s,uint e,uint sess) returns(uint total){\n    for(uint i=s;i<=e;i++){\n        total+=AllSessions[sess].downVotes[i];\n    }\n    \n}\nfunction createSession(uint _start,uint _end,uint _maxAttendees,uint _price,uint _votesPerTicket){\n    require(now<_start);\n    AllSessions[totalSessions+1]=Session(_start,_end,0,_maxAttendees,_price,_votesPerTicket,0,msg.sender,0,0);\n    SessionOwner[totalSessions+1]=msg.sender;\n    totalSessions=totalSessions+1;\n    emit SessionCreated( _start, _end, _price,msg.sender);\n}\n\nfunction upVote(uint session,uint token ){\n require(AllSessions[session].registeredUser[token]==true);  \n require(a.ownerOf(token)==msg.sender);\n require(AllSessions[session].ticketvotes[token]<AllSessions[session].votesPerTicket);\n AllSessions[session].ticketvotes[token]+=1;\n AllSessions[session].upVotes[token]+=1;\n AllSessions[session].totalVotes+=1;\n AllSessions[session].totalUpVotes+=1;\n \n\n}\n\nfunction downVote(uint session,uint token){\n require(AllSessions[session].registeredUser[token]==true);  \n require(a.ownerOf(token)==msg.sender);\n require(AllSessions[session].ticketvotes[token]<AllSessions[session].votesPerTicket);\n AllSessions[session].ticketvotes[token]+=1;\n AllSessions[session].downVotes[token]+=1;\n AllSessions[session].totalVotes+=1;\n}\n\nfunction transferRegistration(uint session,uint token,uint token2){\n require(AllSessions[session].registeredUser[token]==true);  \n require(a.ownerOf(token)==msg.sender);\n AllSessions[session].registeredUser[token]=false;\n AllSessions[session].registeredUser[token2]=true;\n}\n\nfunction register(uint session,uint token) payable{\n    require(msg.value>=AllSessions[session].price);\n    require(a.ownerOf(token)==msg.sender);\n    require(AllSessions[session].registeredUser[token]==false);\n    require(AllSessions[session].totalAttendees<AllSessions[session].maxAttendees);\n    AllSessions[session].registeredUser[token]=true;\n    AllSessions[session].totalAttendees+=1;\n    AllSessions[session].earnings+=msg.value;\n}\n\nfunction withdrawSessionEarnings(uint s){\nrequire(AllSessions[s].creator==msg.sender);\n    uint value=AllSessions[s].earnings;\n\n    AllSessions[s].earnings=0;\n    msg.sender.transfer(value);\n}\n\n}",
  "sourcePath": "/home/john/ETHDENVER/ethereum/contracts/DJSession.sol",
  "compiler": {
    "name": "solc",
    "version": "0.4.25+commit.59dbf8f1.Emscripten.clang"
  },
  "schemaVersion": "2.0.2",
  "updatedAt": "2019-02-17T00:14:50.212Z"
}