{
  "contractName": "DJSession",
  "abi": [
    {
      "inputs": [
        {
          "name": "tokenaddress",
          "type": "address"
        }
      ],
      "payable": false,
      "stateMutability": "nonpayable",
      "type": "constructor"
    },
    {
      "constant": true,
      "inputs": [
        {
          "name": "s",
          "type": "uint256"
        }
      ],
      "name": "OwnsSession",
      "outputs": [
        {
          "name": "",
          "type": "bool"
        }
      ],
      "payable": false,
      "stateMutability": "view",
      "type": "function"
    },
    {
      "constant": false,
      "inputs": [
        {
          "name": "_start",
          "type": "uint256"
        },
        {
          "name": "_end",
          "type": "uint256"
        },
        {
          "name": "_maxAttendees",
          "type": "uint256"
        },
        {
          "name": "_price",
          "type": "uint256"
        },
        {
          "name": "_votesPerTicket",
          "type": "uint256"
        }
      ],
      "name": "createSession",
      "outputs": [],
      "payable": false,
      "stateMutability": "nonpayable",
      "type": "function"
    },
    {
      "constant": false,
      "inputs": [
        {
          "name": "session",
          "type": "uint256"
        },
        {
          "name": "token",
          "type": "uint256"
        }
      ],
      "name": "upVote",
      "outputs": [],
      "payable": false,
      "stateMutability": "nonpayable",
      "type": "function"
    },
    {
      "constant": false,
      "inputs": [
        {
          "name": "session",
          "type": "uint256"
        },
        {
          "name": "token",
          "type": "uint256"
        }
      ],
      "name": "downVote",
      "outputs": [],
      "payable": false,
      "stateMutability": "nonpayable",
      "type": "function"
    },
    {
      "constant": false,
      "inputs": [
        {
          "name": "session",
          "type": "uint256"
        },
        {
          "name": "token",
          "type": "uint256"
        },
        {
          "name": "token2",
          "type": "uint256"
        }
      ],
      "name": "transferRegistration",
      "outputs": [],
      "payable": false,
      "stateMutability": "nonpayable",
      "type": "function"
    },
    {
      "constant": false,
      "inputs": [
        {
          "name": "session",
          "type": "uint256"
        },
        {
          "name": "token",
          "type": "uint256"
        }
      ],
      "name": "register",
      "outputs": [],
      "payable": false,
      "stateMutability": "nonpayable",
      "type": "function"
    }
  ],
  "bytecode": "0x608060405234801561001057600080fd5b50604051602080610ade83398101806040528101908080519060200190929190505050806000806101000a81548173ffffffffffffffffffffffffffffffffffffffff021916908373ffffffffffffffffffffffffffffffffffffffff16021790555050610a5b806100836000396000f300608060405260043610610078576000357c0100000000000000000000000000000000000000000000000000000000900463ffffffff1680631fe5fc271461007d5780633493a87c146100d2578063919eff9014610117578063aa7a17ba1461014e578063d66d6c1014610185578063e88d3572146101bc575b600080fd5b34801561008957600080fd5b506100d060048036038101908080359060200190929190803590602001909291908035906020019092919080359060200190929190803590602001909291905050506101fd565b005b3480156100de57600080fd5b506100fd600480360381019080803590602001909291905050506102fb565b604051808215151515815260200191505060405180910390f35b34801561012357600080fd5b5061014c6004803603810190808035906020019092919080359060200190929190505050610366565b005b34801561015a57600080fd5b506101836004803603810190808035906020019092919080359060200190929190505050610591565b005b34801561019157600080fd5b506101ba60048036038101908080359060200190929190803590602001909291905050506107bc565b005b3480156101c857600080fd5b506101fb60048036038101908080359060200190929190803590602001909291908035906020019092919050505061085f565b005b60e060405190810160405280868152602001858152602001600081526020018481526020018381526020018281526020016000815250600260006001600454018152602001908152602001600020600082015181600001556020820151816001015560408201518160020155606082015181600301556080820151816004015560a0820151816005015560c082015181600901559050503360036000600454815260200190815260200160002060006101000a81548173ffffffffffffffffffffffffffffffffffffffff021916908373ffffffffffffffffffffffffffffffffffffffff1602179055506001600454016004819055505050505050565b60003373ffffffffffffffffffffffffffffffffffffffff166003600084815260200190815260200160002060009054906101000a900473ffffffffffffffffffffffffffffffffffffffff1673ffffffffffffffffffffffffffffffffffffffff16149050919050565b6001151560026000848152602001908152602001600020600a01600083815260200190815260200160002060009054906101000a900460ff1615151415156103ad57600080fd5b3373ffffffffffffffffffffffffffffffffffffffff166000809054906101000a900473ffffffffffffffffffffffffffffffffffffffff1673ffffffffffffffffffffffffffffffffffffffff16636352211e836040518263ffffffff167c010000000000000000000000000000000000000000000000000000000002815260040180828152602001915050602060405180830381600087803b15801561045457600080fd5b505af1158015610468573d6000803e3d6000fd5b505050506040513d602081101561047e57600080fd5b810190808051906020019092919050505073ffffffffffffffffffffffffffffffffffffffff161415156104b157600080fd5b6002600083815260200190815260200160002060050154600260008481526020019081526020016000206006016000838152602001908152602001600020541015156104fc57600080fd5b600160026000848152602001908152602001600020600601600083815260200190815260200160002060008282540192505081905550600160026000848152602001908152602001600020600701600083815260200190815260200160002060008282540192505081905550600160026000848152602001908152602001600020600901600082825401925050819055505050565b6001151560026000848152602001908152602001600020600a01600083815260200190815260200160002060009054906101000a900460ff1615151415156105d857600080fd5b3373ffffffffffffffffffffffffffffffffffffffff166000809054906101000a900473ffffffffffffffffffffffffffffffffffffffff1673ffffffffffffffffffffffffffffffffffffffff16636352211e836040518263ffffffff167c010000000000000000000000000000000000000000000000000000000002815260040180828152602001915050602060405180830381600087803b15801561067f57600080fd5b505af1158015610693573d6000803e3d6000fd5b505050506040513d60208110156106a957600080fd5b810190808051906020019092919050505073ffffffffffffffffffffffffffffffffffffffff161415156106dc57600080fd5b60026000838152602001908152602001600020600501546002600084815260200190815260200160002060060160008381526020019081526020016000205410151561072757600080fd5b600160026000848152602001908152602001600020600601600083815260200190815260200160002060008282540192505081905550600160026000848152602001908152602001600020600801600083815260200190815260200160002060008282540192505081905550600160026000848152602001908152602001600020600901600082825401925050819055505050565b600260008381526020019081526020016000206003015460026000848152602001908152602001600020600201541015156107f657600080fd5b600160026000848152602001908152602001600020600a01600083815260200190815260200160002060006101000a81548160ff021916908315150217905550600160026000848152602001908152602001600020600201600082825401925050819055505050565b6001151560026000858152602001908152602001600020600a01600084815260200190815260200160002060009054906101000a900460ff1615151415156108a657600080fd5b3373ffffffffffffffffffffffffffffffffffffffff166000809054906101000a900473ffffffffffffffffffffffffffffffffffffffff1673ffffffffffffffffffffffffffffffffffffffff16636352211e846040518263ffffffff167c010000000000000000000000000000000000000000000000000000000002815260040180828152602001915050602060405180830381600087803b15801561094d57600080fd5b505af1158015610961573d6000803e3d6000fd5b505050506040513d602081101561097757600080fd5b810190808051906020019092919050505073ffffffffffffffffffffffffffffffffffffffff161415156109aa57600080fd5b600060026000858152602001908152602001600020600a01600084815260200190815260200160002060006101000a81548160ff021916908315150217905550600160026000858152602001908152602001600020600a01600083815260200190815260200160002060006101000a81548160ff0219169083151502179055505050505600a165627a7a723058200e74c94f750a9082bae94f33a67e47a9e0f5e72ef7ea9e01ab7c938cedb3e5510029",
  "source": "pragma solidity ^0.4.24;\nimport './Avatar.sol';\n\ncontract DJSession{\nAvatar a;\nmapping(address=>bool) registeredDJ;\nmapping(uint=>Session) AllSessions;\nmapping(uint=>address) SessionOwner;\nuint totalSessions;\n\nconstructor(address tokenaddress){\na=Avatar(tokenaddress);\n}\nstruct Session{\nuint start;\nuint end;\nuint totalAttendees;\nuint maxAttendees;\nuint price;\nuint votesPerTicket;\nmapping(uint=>uint) ticketvotes;\n//maps an upvote to a time in seconds\nmapping(uint=>uint) upVotes;\n//maps a downvote to time in seconds\nmapping(uint=>uint) downVotes;\n\nuint totalVotes;\nmapping(uint=>bool) registeredUser;\n}\n\nfunction OwnsSession(uint s) constant returns(bool){\n      return SessionOwner[s]==msg.sender;\n}\n\nfunction createSession(uint _start,uint _end,uint _maxAttendees,uint _price,uint _votesPerTicket){\n    AllSessions[totalSessions+1]=Session(_start,_end,0,_maxAttendees,_price,_votesPerTicket,0);\n    SessionOwner[totalSessions]=msg.sender;\n    totalSessions=totalSessions+1;\n}\n\nfunction upVote(uint session,uint token ){\n require(AllSessions[session].registeredUser[token]==true);  \n require(a.ownerOf(token)==msg.sender);\n require(AllSessions[session].ticketvotes[token]<AllSessions[session].votesPerTicket);\n AllSessions[session].ticketvotes[token]+=1;\n AllSessions[session].upVotes[token]+=1;\n AllSessions[session].totalVotes+=1;\n \n\n}\n\nfunction downVote(uint session,uint token){\n require(AllSessions[session].registeredUser[token]==true);  \n require(a.ownerOf(token)==msg.sender);\n require(AllSessions[session].ticketvotes[token]<AllSessions[session].votesPerTicket);\n AllSessions[session].ticketvotes[token]+=1;\n AllSessions[session].downVotes[token]+=1;\n AllSessions[session].totalVotes+=1;\n}\n\nfunction transferRegistration(uint session,uint token,uint token2){\n require(AllSessions[session].registeredUser[token]==true);  \n require(a.ownerOf(token)==msg.sender);\n AllSessions[session].registeredUser[token]=false;\n AllSessions[session].registeredUser[token2]=true;\n}\n\nfunction register(uint session,uint token){\n    require(AllSessions[session].totalAttendees<AllSessions[session].maxAttendees);\n    AllSessions[session].registeredUser[token]=true;\n    AllSessions[session].totalAttendees+=1;\n}\n\n\n\n\n}",
  "sourcePath": "/home/john/ETHDENVER/contracts/DJSession.sol",
  "compiler": {
    "name": "solc",
    "version": "0.4.25+commit.59dbf8f1.Emscripten.clang"
  },
  "schemaVersion": "2.0.2",
  "updatedAt": "2019-02-16T04:31:11.080Z"
}