{
  "contractName": "MyContract",
  "abi": [
    {
      "constant": true,
      "inputs": [],
      "name": "x",
      "outputs": [
        {
          "name": "",
          "type": "uint256"
        }
      ],
      "payable": false,
      "stateMutability": "view",
      "type": "function"
    },
    {
      "constant": true,
      "inputs": [],
      "name": "s",
      "outputs": [
        {
          "name": "",
          "type": "string"
        }
      ],
      "payable": false,
      "stateMutability": "view",
      "type": "function"
    },
    {
      "constant": false,
      "inputs": [
        {
          "name": "_x",
          "type": "uint256"
        },
        {
          "name": "_s",
          "type": "string"
        }
      ],
      "name": "initialize",
      "outputs": [],
      "payable": false,
      "stateMutability": "nonpayable",
      "type": "function"
    }
  ],
  "bytecode": "0x608060405234801561001057600080fd5b50610465806100206000396000f300608060405260043610610057576000357c0100000000000000000000000000000000000000000000000000000000900463ffffffff1680630c55699c1461005c5780636e9d13ab1461008757806386b714e2146100fa575b600080fd5b34801561006857600080fd5b5061007161018a565b6040518082815260200191505060405180910390f35b34801561009357600080fd5b506100f860048036038101908080359060200190929190803590602001908201803590602001908080601f0160208091040260200160405190810160405280939291908181526020018383808284378201915050505050509192919290505050610190565b005b34801561010657600080fd5b5061010f6102e5565b6040518080602001828103825283818151815260200191508051906020019080838360005b8381101561014f578082015181840152602081019050610134565b50505050905090810190601f16801561017c5780820380516001836020036101000a031916815260200191505b509250505060405180910390f35b60335481565b60008060019054906101000a900460ff16806101b057506101af610383565b5b806101c757506000809054906101000a900460ff16155b1515610261576040517f08c379a000000000000000000000000000000000000000000000000000000000815260040180806020018281038252602e8152602001807f436f6e747261637420696e7374616e63652068617320616c726561647920626581526020017f656e20696e697469616c697a656400000000000000000000000000000000000081525060400191505060405180910390fd5b600060019054906101000a900460ff1690506001600060016101000a81548160ff02191690831515021790555060016000806101000a81548160ff0219169083151502179055508260338190555081603490805190602001906102c5929190610394565b5080600060016101000a81548160ff021916908315150217905550505050565b60348054600181600116156101000203166002900480601f01602080910402602001604051908101604052809291908181526020018280546001816001161561010002031660029004801561037b5780601f106103505761010080835404028352916020019161037b565b820191906000526020600020905b81548152906001019060200180831161035e57829003601f168201915b505050505081565b600080303b90506000811491505090565b828054600181600116156101000203166002900490600052602060002090601f016020900481019282601f106103d557805160ff1916838001178555610403565b82800160010185558215610403579182015b828111156104025782518255916020019190600101906103e7565b5b5090506104109190610414565b5090565b61043691905b8082111561043257600081600090555060010161041a565b5090565b905600a165627a7a72305820dda0c08e3cbe75dc06c5e6066b72e1a913afb1e509e62f2cfeb35181c7377d780029",
  "source": "pragma solidity ^0.4.24;\n\nimport \"zos-lib/contracts/Initializable.sol\";\n\ncontract MyContract is Initializable {\n\n  uint256 public x;\n  string public s;\n\n  function initialize(uint256 _x, string memory _s) initializer public {\n    x = _x;\n    s = _s;\n  }\n}\n",
  "sourcePath": "/home/john/ETHDENVER/contracts/MyContract.sol",
  "compiler": {
    "name": "solc",
    "version": "0.4.25+commit.59dbf8f1.Emscripten.clang"
  },
  "schemaVersion": "2.0.2",
  "updatedAt": "2019-02-15T22:19:10.659Z"
}